:040000008031202803
:100008007E14803120007F08F1002E008C1E1228FB
:100018008C120130F00070082000BC072E00101C64
:100028001B2810100230F00070082000BB07710870
:100038002000FF007E10090080312228F501F6011A
:10004800F70120308400003085001D30843192246F
:100058007E102000803130283E00B801C301CE0157
:100068002000960197019801FF303E00B900C401B5
:10007800CF01FF3020009100920108309300033037
:1000880031009300803020009E0044309F003100F2
:100098009115FC3024008D0007308E000630910049
:1000A80020000C08BD003D08C1000F30BD003D0810
:1000B800C105BC01BB01F701F6011230BD003D08C6
:1000C800F900F5010730BD003D08F800B701B80197
:1000D800B001B101B6010030A3000030A200003029
:1000E800A1000030A0000030AB000030AA000030B2
:1000F800A9000030A800B401B501AE01AF01B201FA
:10010800B301AC01AD012E0096161A14C0308B0055
:1001180020003C0803198C28BC0123082204210470
:1001280020040319A7280130BD000030BE000030AC
:10013800BF000030C0003D08A0023E08A13B3F08B8
:10014800A23B4008A33B2B082A04290428040319CE
:10015800BD280130BD000030BE000030BF000030B7
:10016800C0003D08A8023E08A93B3F08AA3B40083A
:10017800AB3B340835040319C5280130B4020030FC
:10018800B53B2E082F040319CD280130AE020030EC
:10019800AF3B320833040319D5280130B2020030CE
:1001A800B33B2C082D040319DD280130AC020030C4
:1001B800AD3B3B080319ED283B08BD003D08F70798
:1001C800BB0177088431852480312000BD003D08BB
:1001D800F70060307706031D1329F7010130BD00D1
:1001E8003D08F60776088431852480312000BD005B
:1001F8003D08F60060307606031D1329F60101302C
:10020800BD003D08F9077908843185248031200034
:10021800BD003D08F900243079060319F9010C08DE
:10022800BD003D08F400B030BD003D08F405740879
:100238003906031D2929300A0319310A03192F2900
:100248000130B0070030B13D2F297408BD003D08CA
:10025800B900B001B1010130BD003D08BA07043052
:100268003A020318BA01C11C4329F030BD003D0809
:1002780098043A08243E8600870101084C290F306B
:10028800BD003D0898053A08243E8600870101090B
:100298009700592980305529203055294030552953
:1002A8001030BD003D08F40067293A08003A0319E8
:1002B8004E29013A03195029033A03195229013AE0
:1002C8000319542967298E1D7829370803197829B5
:1002D800C11C7429F4097408BD003D0898057829E3
:1002E8007408BD003D0898040C1F8E1DCB297508A5
:1002F8007606031D912978087906031D9129770848
:10030800031D9129B601B60A0030AB000030AA00DF
:100318000030A9000030A800B3290E1DAB2923081E
:100328002204210420040319B6010030310262308E
:10033800031930020318B91BBB290030AB00043085
:10034800AA000530A9006030A800B601BB2928031F
:1003580029042A042B04031DBB29B601B60A003060
:10036800A3000030A200E430A100C030A00036088D
:100378000319C9292C082D04031DDD2904308E0614
:10038800A230AC000030AD00DD290E11DD290E11C0
:10039800B6010030A3000030A2000030A1000030F8
:1003A800A0000030AB000030AA000030A9000030E7
:1003B800A80000303102623003193002031CE52A1C
:1003C80034083504031DE52A0C1F552AD02A10309D
:1003D800B2001330B30007303102A03003193002E5
:1003E8000318F829A230F9292830B4000030B500E4
:1003F8000130BD003D08F50775088431852480313A
:100408002000BD003D08F50060307506031DE52A93
:10041800F5010130BD003D08F807780884318524CE
:1004280080312000BD003D08F80024307806031D07
:10043800E52AF801E52A1030B2001330B30007307E
:100448003102A0300319300203182C2AA2302D2AB9
:100458002830B4000030B5000130F5027508843149
:10046800782480312000BD003D08F5006130750218
:10047800031CE52A5930BD003D08F5000130F8029B
:1004880078088431782480312000BD003D08F800C8
:1004980025307802031CE52A2330BD003D08F8000A
:1004A800E52A39093039BD00BE013E08003A031972
:1004B8005E2AE52A3D08103A0319EB29303A031958
:1004C8001F2AE52AE52A07303102A0300319300235
:1004D8000318702AA230712A2830B4000030B50001
:1004E8000130BD003D08F607760884318524803147
:1004F8002000BD003D08F60060307606031DE52AA1
:10050800F6010130BD003D08F907790884318524DA
:1005180080312000BD003D08F90024307906031D14
:10052800E52AF901E52A07303102A0300319300223
:100538000318A02AA230A12A2830B4000030B50040
:100548000130F60276088431782480312000BD001D
:100558003D08F60061307602031CE52A5930BD00DB
:100568003D08F6000130F902790884317824803199
:100578002000BD003D08F90025307902031CE52A5A
:100588002330BD003D08F900E52AF70124000E10CC
:100598008D018C010E14E52A20003909B039BD00FF
:1005A800BE013E08003A0319DA2AE52A3D08103A46
:1005B8000319672A303A0319972A903A0319C92A66
:1005C800E52A20000C1B862B320833040319862BDE
:1005D80075080F39683E840084300318013E850091
:1005E8000008BD003D08A4007508BD000430BD36F4
:1005F800890BFB2A3D080F39683E840084300318B4
:10060800013E85000008BE003E08A500411C4E2B97
:1006180078080319402B780884314C2480310F392D
:10062800683E840084300318013E850000082000DD
:10063800BD003D08A600780884314C248031F0398B
:1006480003193D2B780884314C2480312000BD00EB
:100658000430BD36890B2D2B3D080F39683E8400C8
:1006680084300318013E85000008BE003E08A7003C
:10067800482B2000A701482B0930BD003D08A700E2
:10068800E530BD003D08A60012307802031C722B2D
:100698002716722B78080F39683E840084300318B7
:1006A800013E85000008BD003D08A6007808F03925
:1006B8000319712B7808BD000430BD36890B612BF6
:1006C8003D080F39683E840084300318013E8500D8
:1006D8000008BE003E08A700722BA7012E082F04B1
:1006E800031D472C370803197F2B7A30AE000030E2
:1006F800AF00B701472CE830AE000130AF00B701BA
:10070800B70A472CB701B70AAE01AF01B201B3016E
:1007180039083039031DC12B77080F39683E84002A
:1007280084300318013E85000008BD003D08A40080
:100738007708BD000430BD36890B9F2B3D080F3963
:10074800683E840084300318013E85000008BE001E
:100758003E08A50076080F39683E840084300318E7
:10076800013E85000008BD003D08A6007608BD00D2
:100778000430BD36890BBD2B392C76080F39683EFD
:10078800840084300318013E85000008BD003D0840
:10079800A4007608BD000430BD36890BD02B3D0877
:1007A8000F39683E840084300318013E8500000834
:1007B800BE003E08A500411C232C79080319152CFE
:1007C800790884314C2480310F39683E84008430A4
:1007D8000318013E850000082000BD003D08A60062
:1007E800790884314C248031F0390319122C7908A6
:1007F80084314C2480312000BD000430BD36890B83
:10080800022C3D080F39683E840084300318013EED
:1008180085000008BE003E08A7001D2C2000A70187
:100828001D2C0930BD003D08A700E530BD003D087E
:10083800A60012307902031C472C2716472C79088A
:100848000F39683E840084300318013E8500000893
:10085800BD003D08A6007908F0390319462C79082F
:10086800BD000430BD36890B362C3D080F39683E73
:10087800840084300318013E85000008BE003E084D
:10088800A700472CA70126168E198C2863008C28F0
:10089800F300223073020318642C21307306031D01
:1008A800572C09305C2C20307306031D602C08304F
:1008B800F2007208F300662C13307302031C662CD6
:1008C8001230F30273080800EB340934E534AD3410
:1008D8000F34AE34EE348934EF34AF34CF346E3461
:1008E800E2346D34E634C634F3000F307305F20099
:1008F8000F307206031D832C7308FA3E0800730834
:100908000800F3000F307305F2000A307206031D69
:10091800902C7308063E08007308080064008001E4
:080928000131890B932C00340E
:020000040001F9
:0A000E008C17DD3F9F3FFF0FFF3FFF
:00000001FF
