:040000008031202803
:100008007E14803120007F08F1002E008C1E1228FB
:100018008C120130F00070082000BC072E00101C64
:100028001B2810100230F00070082000BB07710870
:100038002000FF007E10090080312228F501F6011A
:10004800F70120308400003085001D30843193246E
:100058007E102000803130283E00B801C301CE0157
:100068002000960197019801FF303E00B900C401B5
:10007800CF010830E500FF302000910092010830E0
:100088009300033031009300803020009E004430FC
:100098009F0031009115073024008E000630910032
:1000A80020000C08BD003D08C1000F30BD003D0810
:1000B800C105BC01BB01F701F6011230BD003D08C6
:1000C800F900F5010730BD003D08F800B701B80197
:1000D800B001B101B6010030A3000030A200003029
:1000E800A1000030A0000030AB000030AA000030B2
:1000F800A9000030A800B401B501AE01AF01B201FA
:10010800B301AC01AD012E0096161A14C0308B0055
:1001180020003C0803198C28BC0123082204210470
:1001280020040319A7280130BD000030BE000030AC
:10013800BF000030C0003D08A0023E08A13B3F08B8
:10014800A23B4008A33B2B082A04290428040319CE
:10015800BD280130BD000030BE000030BF000030B7
:10016800C0003D08A8023E08A93B3F08AA3B40083A
:10017800AB3B340835040319C5280130B4020030FC
:10018800B53B2E082F040319CD280130AE020030EC
:10019800AF3B320833040319D5280130B2020030CE
:1001A800B33B2C082D040319DD280130AC020030C4
:1001B800AD3B3B080319ED283B08BD003D08F70798
:1001C800BB0177088431862480312000BD003D08BA
:1001D800F70060307706031D1329F7010130BD00D1
:1001E8003D08F60776088431862480312000BD005A
:1001F8003D08F60060307606031D1329F60101302C
:10020800BD003D08F9077908843186248031200033
:10021800BD003D08F900243079060319F9010C08DE
:10022800BD003D08F400B030BD003D08F405740879
:100238003906031D2929300A0319310A03192F2900
:100248000130B0070030B13D2F297408BD003D08CA
:10025800B900B001B1010130BD003D08BA07033053
:10026800BD003D08BA05C11C4329F030BD003D085A
:1002780098043A08243E8600870101084C290F306B
:10028800BD003D0898053A08243E8600870101090B
:100298009700592980305529203055294030552953
:1002A8001030BD003D08F40067293A08003A0319E8
:1002B8004E29013A03195029033A03195229013AE0
:1002C8000319542967298E1D7829370803197829B5
:1002D800C11C7429F4097408BD003D0898057829E3
:1002E8007408BD003D0898040C1F8E1DCC297508A4
:1002F8007606031D912978087906031D9129770848
:10030800031D9129B601B60A0030AB000030AA00DF
:100318000030A9000030A800B42936080319AC2918
:1003280023082204210420040319B60100303102F5
:100338006230031930020318B91BBC290030AB0026
:100348000430AA000530A9006030A800B601BC2915
:10035800280329042A042B04031DBC29B601B60A64
:100368000030A3000030A200E430A100C030A0009B
:1003780036080319CA292C082D04031DDE29043068
:100388008E06A230AC000030AD00DE290E11DE2949
:100398000E11B6010030A3000030A2000030A10009
:1003A8000030A0000030AB000030AA000030A900E7
:1003B8000030A80000303102623003193002031CFB
:1003C800E62A34083504031DE62A0C1F562AD12ACA
:1003D8001030B2001330B30007303102A0300319D7
:1003E80030020318F929A230FA292830B400003065
:1003F800B5000130BD003D08F50775088431862435
:1004080080312000BD003D08F50060307506031DF1
:10041800E62AF5010130BD003D08F8077808843167
:10042800862480312000BD003D08F800243078067D
:10043800031DE62AF801E62A1030B2001330B30093
:1004480007303102A0300319300203182D2AA230D8
:100458002E2A2830B4000030B5000130F5027508A6
:100468008431792480312000BD003D08F5006130D9
:100478007502031CE62A5930BD003D08F50001301D
:10048800F80278088431792480312000BD003D08C5
:10049800F80025307802031CE62A2330BD003D0809
:1004A800F800E62A39093039BD00BE013E08003A95
:1004B80003195F2AE62A3D08103A0319EC29303A55
:1004C8000319202AE62AE62A07303102A030031948
:1004D80030020318712AA230722A2830B400003082
:1004E800B5000130BD003D08F60776088431862442
:1004F80080312000BD003D08F60060307606031DFF
:10050800E62AF6010130BD003D08F9077908843173
:10051800862480312000BD003D08F900243079068A
:10052800031DE62AF901E62A07303102A030031933
:1005380030020318A12AA230A22A2830B4000030C1
:10054800B5000130F6027608843179248031200024
:10055800BD003D08F60061307602031CE62A5930DA
:10056800BD003D08F6000130F9027908843179248C
:1005780080312000BD003D08F90025307902031CB8
:10058800E62A2330BD003D08F900E62AF7012400D9
:100598000E108D018C010E14E62A20003909B0399D
:1005A800BD00BE013E08003A0319DB2AE62A3D08D1
:1005B800103A0319682A303A0319982A903A03190D
:1005C800CA2AE62A20000C1B872B32083304031999
:1005D800872B75080F39693E840084300318013E63
:1005E80085000008BD003D08A4007508BD00043062
:1005F800BD36890BFC2A3D080F39693E84008430DA
:100608000318013E85000008BE003E08A500411CF5
:100618004F2B78080319412B780884314D248031F9
:100628000F39693E840084300318013E85000008B4
:100638002000BD003D08A600780884314D24803193
:10064800F03903193E2B780884314D24803120007D
:10065800BD000430BD36890B2E2B3D080F39693E8D
:10066800840084300318013E85000008BE003E085F
:10067800A700492B2000A701492B0930BD003D08E0
:10068800A700E530BD003D08A60012307802031C23
:10069800732B2716732B78080F39693E8400843032
:1006A8000318013E85000008BD003D08A600780833
:1006B800F0390319722B7808BD000430BD36890B58
:1006C800622B3D080F39693E840084300318013ECF
:1006D80085000008BE003E08A700732BA7012E085E
:1006E8002F04031D482C37080319802B7A30AE00DD
:1006F8000030AF00B701482CE830AE000130AF0041
:10070800B701B70A482CB701B70AAE01AF01B20169
:10071800B30139083039031DC22B77080F39693EF8
:10072800840084300318013E85000008BD003D08A0
:10073800A4007708BD000430BD36890BA02B3D0806
:100748000F39693E840084300318013E8500000893
:10075800BE003E08A50076080F39693E8400843043
:100768000318013E85000008BD003D08A600760874
:10077800BD000430BD36890BBE2B3A2C76080F39E4
:10078800693E840084300318013E85000008BD00DE
:100798003D08A4007608BD000430BD36890BD12B76
:1007A8003D080F39693E840084300318013E8500F6
:1007B8000008BE003E08A500411C242C7908031936
:1007C800162C790884314D2480310F39693E840014
:1007D80084300318013E850000082000BD003D0854
:1007E800A600790884314D248031F0390319132C7F
:1007F800790884314D2480312000BD000430BD3695
:10080800890B032C3D080F39693E84008430031896
:10081800013E85000008BE003E08A7001E2C2000EF
:10082800A7011E2C0930BD003D08A700E530BD001A
:100838003D08A60012307902031C482C2716482CC4
:1008480079080F39693E840084300318013E850019
:100858000008BD003D08A6007908F0390319472CA7
:100868007908BD000430BD36890B372C3D080F3997
:10087800693E840084300318013E85000008BE00EC
:100888003E08A700482CA70126168E198C2863005D
:100898008C28F300223073020318652C213073066C
:1008A800031D582C09305D2C20307306031D612C64
:1008B8000830F2007208F300672C13307302031C2F
:1008C800672C1230F30273080800EB340934E5345E
:1008D800AD340F34AE34EE348934EF34AF34CF3422
:1008E8006E34E2346D34E634C634F3000F307305E9
:1008F800F2000F307206031D842C7308FA3E0800BC
:1009080073080800F3000F307305F2000A3072060E
:10091800031D912C7308063E080073080800640044
:0A09280080010131890B942C00348A
:020000040001F9
:0A000E008C17DC3F9F3FFF0FFF3F00
:00000001FF
