:040000008031202803
:100008007E14803120007F08F1002E008C1E1228FB
:100018008C120130F00070082000BC072E00101C64
:100028001B2810100230F00070082000BB07710870
:100038002000FF007E10090080312228F501F6011A
:10004800F70120308400003085001D308431912470
:100058007E102000803130283E00B801C301CE0157
:100068002000960197019801FF303E00B900C401B5
:10007800CF01FF3020009100920108309300033037
:1000880031009300803020009E0044309F003100F2
:100098009115073024008E000630910020000C08CE
:1000A800BD003D08C1000F30BD003D08C105BC01C1
:1000B800BB01F701F6011230BD003D08F900F5015A
:1000C8000730BD003D08F800B701B801B001B10123
:1000D800B6010030A3000030A2000030A1000030BB
:1000E800A0000030AB000030AA000030A9000030AA
:1000F800A800B401B501AE01AF01B201B301AC0172
:10010800AD012E0096161A14C0308B0020003C0852
:1001180003198A28BC012308220421042004031996
:10012800A5280130BD000030BE000030BF000030FF
:10013800C0003D08A0023E08A13B3F08A23B400882
:10014800A33B2B082A04290428040319BB280130DF
:10015800BD000030BE000030BF000030C0003D08C8
:10016800A8023E08A93B3F08AA3B4008AB3B34081D
:1001780035040319C3280130B4020030B53B2E08FA
:100188002F040319CB280130AE020030AF3B3208F0
:1001980033040319D3280130B2020030B33B2C08D2
:1001A8002D040319DB280130AC020030AD3B3B08BD
:1001B8000319EB283B08BD003D08F707BB0177088A
:1001C8008431842480312000BD003D08F700603070
:1001D8007706031D1129F7010130BD003D08F60718
:1001E80076088431842480312000BD003D08F60063
:1001F80060307606031D1129F6010130BD003D0867
:10020800F90779088431842480312000BD003D0835
:10021800F900243079060319F9010C08BD003D08DE
:10022800F400B030BD003D08F40574083906031D1C
:100238002729300A0319310A03192D290130B0077B
:100248000030B13D2D297408BD003D08B900B0014A
:10025800B1010130BD003D08BA070330BD003D08BB
:10026800BA05C11C4129F030BD003D0898043A0880
:10027800243E8600870101084A290F30BD003D0849
:1002880098053A08243E86008701010997005729F6
:100298008030532920305329403053291030BD0075
:1002A8003D08F40065293A08003A03194C29013A37
:1002B80003194E29033A03195029013A03195229FF
:1002C80065298E1D7629370803197629C11C7229DC
:1002D800F4097408BD003D08980576297408BD0026
:1002E8003D0898040C1F8E1DCA2975087606031D43
:1002F8008F2978087906031D8F297708031D8F2910
:10030800B601B60A0030AB000030AA000030A900E0
:100318000030A800B22936080319AA2923082204A4
:10032800210420040319B601003031026230031998
:1003380030020318B91BBA290030AB000430AA00F8
:100348000530A9006030A800B601BA29280329049D
:100358002A042B04031DBA29B601B60A0030A300EB
:100368000030A200E430A100C030A0003608031914
:10037800C8292C082D04031DDC2904308E06A23060
:10038800AC000030AD00DC290E11DC290E11B601DD
:100398000030A3000030A2000030A1000030A0000F
:1003A8000030AB000030AA000030A9000030A800DF
:1003B80000303102623003193002031CE42A340889
:1003C8003504031DE42A0C1F542ACF2A1030B2002A
:1003D8001330B30007303102A0300319300203187C
:1003E800F729A230F8292830B4000030B5000130D0
:1003F800BD003D08F507750884318424803120004C
:10040800BD003D08F50060307506031DE42AF501BE
:100418000130BD003D08F807780884318424803114
:100428002000BD003D08F80024307806031DE42AAA
:10043800F801E42A1030B2001330B300073031025B
:10044800A0300319300203182B2AA2302C2A283096
:10045800B4000030B5000130F50275088431772406
:1004680080312000BD003D08F50061307502031C95
:10047800E42A5930BD003D08F5000130F80278083B
:100488008431772480312000BD003D08F8002530F4
:100498007802031CE42A2330BD003D08F800E42A52
:1004A80039093039BD00BE013E08003A03195D2AFA
:1004B800E42A3D08103A0319EA29303A03191E2A9A
:1004C800E42AE42A07303102A03003193002031865
:1004D8006F2AA230702A2830B4000030B5000130ED
:1004E800BD003D08F6077608843184248031200059
:1004F800BD003D08F60060307606031DE42AF601CB
:100508000130BD003D08F907790884318424803121
:100518002000BD003D08F90024307906031DE42AB7
:10052800F901E42A07303102A03003193002031818
:100538009F2AA230A02A2830B4000030B50001302C
:10054800F60276088431772480312000BD003D080A
:10055800F60061307602031CE42A5930BD003D08DC
:10056800F6000130F90279088431772480312000BF
:10057800BD003D08F90025307902031CE42A233028
:10058800BD003D08F900E42AF70124000E108D0192
:100598008C010E14E42A20003909B039BD00BE01CF
:1005A8003E08003A0319D92AE42A3D08103A0319EB
:1005B800662A303A0319962A903A0319C82AE42A77
:1005C80020000C1B852B320833040319852B750872
:1005D8000F39673E840084300318013E8500000807
:1005E800BD003D08A4007508BD000430BD36890B68
:1005F800FA2A3D080F39673E840084300318013E0B
:1006080085000008BE003E08A500411C4D2B780857
:1006180003193F2B780884314B2480310F39673E0A
:10062800840084300318013E850000082000BD00C6
:100638003D08A600780884314B248031F03903192D
:100648003C2B780884314B2480312000BD000430D5
:10065800BD36890B2C2B3D080F39673E840084304A
:100668000318013E85000008BE003E08A700472B7E
:100678002000A701472B0930BD003D08A700E53041
:10068800BD003D08A60012307802031C712B271606
:10069800712B78080F39673E840084300318013EB7
:1006A80085000008BD003D08A6007808F039031948
:1006B800702B7808BD000430BD36890B602B3D08CF
:1006C8000F39673E840084300318013E8500000816
:1006D800BE003E08A700712BA7012E082F04031D9A
:1006E800462C370803197E2B7A30AE000030AF0055
:1006F800B701462CE830AE000130AF00B701B70AA9
:10070800462CB701B70AAE01AF01B201B3013908EF
:100718003039031DC02B77080F39673E84008430B9
:100728000318013E85000008BD003D08A4007708B5
:10073800BD000430BD36890B9E2B3D080F39673E3E
:10074800840084300318013E85000008BE003E087E
:10075800A50076080F39673E840084300318013EEF
:1007680085000008BD003D08A6007608BD000430DD
:10077800BD36890BBC2B382C76080F39673E8400B0
:1007880084300318013E85000008BD003D08A40020
:100798007608BD000430BD36890BCF2B3D080F39D4
:1007A800673E840084300318013E85000008BE00BF
:1007B8003E08A500411C222C79080319142C79083D
:1007C80084314B2480310F39673E8400843003180C
:1007D800013E850000082000BD003D08A6007908FC
:1007E80084314B248031F0390319112C7908843174
:1007F8004B2480312000BD000430BD36890B012C0C
:100808003D080F39673E840084300318013E850097
:100818000008BE003E08A7001C2C2000A7011C2CC5
:100828000930BD003D08A700E530BD003D08A60021
:1008380012307902031C462C2716462C79080F39EA
:10084800673E840084300318013E85000008BD001F
:100858003D08A6007908F0390319452C7908BD0030
:100868000430BD36890B352C3D080F39673E8400AE
:1008780084300318013E85000008BE003E08A7002A
:10088800462CA70126168E198A2863008A28F300A9
:10089800223073020318632C21307306031D562C73
:1008A80009305B2C20307306031D5F2C0830F200E2
:1008B8007208F300652C13307302031C652C123088
:1008C800F30273080800EB340934E534AD340F340F
:1008D800AE34EE348934EF34AF34CF346E34E2348E
:1008E8006D34E634C634F3000F307305F2000F3070
:1008F8007206031D822C7308FA3E0800730808006C
:10090800F3000F307305F2000A307206031D8F2CB6
:100918007308063E0800730808006400800101316E
:06092800890B922C003443
:020000040001F9
:0A000E008C17DD3F9F3FFF0FFF3FFF
:00000001FF
