:040000008031202803
:100008007E14803120007F08F1002E008C1E1228FB
:100018008C120130F00070082000BC072E00101C64
:100028001B2810100230F00070082000BB07710870
:100038002000FF007E10090080312228F501F6011A
:10004800F70120308400003085001D3084318F2472
:100058007E102000803130283E00B801C301CE0157
:100068002000960197019801FF303E00B900C401B5
:10007800CF01FF3020009100920108309300033037
:1000880031009300803020009E0044309F003100F2
:100098009115073024008E000630910020000C08CE
:1000A800BD003D08C1000F30BD003D08C105BC01C1
:1000B800BB01F701F6011230BD003D08F900F5015A
:1000C8000730BD003D08F800B701B801B001B10123
:1000D800B6010030A3000030A2000030A1000030BB
:1000E800A0000030AB000030AA000030A9000030AA
:1000F800A800B401B501AE01AF01B201B301AC0172
:10010800AD012E0096161A14C0308B0020003C0852
:1001180003198A28BC012308220421042004031996
:10012800A5280130BD000030BE000030BF000030FF
:10013800C0003D08A0023E08A13B3F08A23B400882
:10014800A33B2B082A04290428040319BB280130DF
:10015800BD000030BE000030BF000030C0003D08C8
:10016800A8023E08A93B3F08AA3B4008AB3B34081D
:1001780035040319C3280130B4020030B53B2E08FA
:100188002F040319CB280130AE020030AF3B3208F0
:1001980033040319D3280130B2020030B33B2C08D2
:1001A8002D040319DB280130AC020030AD3B3B08BD
:1001B8000319EB283B08BD003D08F707BB0177088A
:1001C8008431822480312000BD003D08F700603072
:1001D8007706031D1129F7010130BD003D08F60718
:1001E80076088431822480312000BD003D08F60065
:1001F80060307606031D1129F6010130BD003D0867
:10020800F90779088431822480312000BD003D0837
:10021800F900243079060319F9010C08BD003D08DE
:10022800F400B030BD003D08F40574083906031D1C
:100238002729300A0319310A03192D290130B0077B
:100248000030B13D2D297408BD003D08B900B0014A
:10025800B1010130BD003D08BA0704303A02031865
:10026800BA01C11C4129F030BD003D0898043A0884
:10027800243E8600870101084A290F30BD003D0849
:1002880098053A08243E86008701010997005729F6
:100298008030532920305329403053291030BD0075
:1002A8003D08F40065293A08003A03194C29013A37
:1002B80003194E29033A03195029013A03195229FF
:1002C80065298E1D7629370803197629C11C7229DC
:1002D800F4097408BD003D08980576297408BD0026
:1002E8003D0898040C1BC82975087606031D8E293D
:1002F80078087906031D8E297708031D8E29B60113
:10030800B60A0030AB000030AA000030A900003067
:10031800A800B0290E1DA8292308220421042004BE
:100328000319B60100303102623003193002031894
:10033800B91BB8290030AB000430AA000530A90069
:100348006030A800B601B829280329042A042B0420
:10035800031DB829B601B60A0030A3000030A20078
:10036800E430A100C030A00036080319C6292C08C3
:100378002D04031DDA2904308E06A230AC000030AB
:10038800AD00DA290E11DA290E11B6010030A300EA
:100398000030A2000030A1000030A0000030AB0007
:1003A8000030AA000030A9000030A8000030310257
:1003B800623003193002031CE22A34083504031D95
:1003C800E22A0C1F522ACD2A1030B2001330B30093
:1003D80007303102A030031930020318F529A23082
:1003E800F6292830B4000030B5000130BD003D08C2
:1003F800F50775088431822480312000BD003D084E
:10040800F50060307506031DE22AF5010130BD00D4
:100418003D08F80778088431822480312000BD0027
:100428003D08F80024307806031DE22AF801E22A84
:100438001030B2001330B30007303102A030031976
:1004480030020318292AA2302A2A2830B4000030A2
:10045800B5000130F502750884317524803120001B
:10046800BD003D08F50061307502031CE22A5930D1
:10047800BD003D08F5000130F80278088431752484
:1004880080312000BD003D08F80025307802031CAB
:10049800E22A2330BD003D08F800E22A3909303944
:1004A800BD00BE013E08003A03195B2AE22A3D0856
:1004B800103A0319E829303A03191C2AE22AE22AD9
:1004C80007303102A0300319300203186D2AA23018
:1004D8006E2A2830B4000030B5000130BD003D0858
:1004E800F60776088431822480312000BD003D085B
:1004F800F60060307606031DE22AF6010130BD00E1
:100508003D08F90779088431822480312000BD0034
:100518003D08F90024307906031DE22AF901E22A90
:1005280007303102A0300319300203189D2AA23087
:100538009E2A2830B4000030B5000130F602760853
:100548008431752480312000BD003D08F6006130FB
:100558007602031CE22A5930BD003D08F60001303E
:10056800F90279088431752480312000BD003D08E6
:10057800F90025307902031CE22A2330BD003D082A
:10058800F900E22AF70124000E108D018C010E14E7
:10059800E22A20003909B039BD00BE013E08003A00
:1005A8000319D72AE22A3D08103A0319642A303A77
:1005B8000319942A903A0319C62AE22A20000C1B30
:1005C800832B320833040319832B75080F39653ED2
:1005D800840084300318013E85000008BD003D08F2
:1005E800A4007508BD000430BD36890BF82A3D0803
:1005F8000F39653E840084300318013E85000008E9
:10060800BE003E08A500411C4B2B780803193D2B62
:1006180078088431492480310F39653E840084305C
:100628000318013E850000082000BD003D08A60013
:100638007808843149248031F03903193A2B780835
:100648008431492480312000BD000430BD36890B37
:100658002A2B3D080F39653E840084300318013E7B
:1006680085000008BE003E08A700452B2000A70112
:10067800452B0930BD003D08A700E530BD003D0809
:10068800A60012307802031C6F2B27166F2B7808F0
:100698000F39653E840084300318013E8500000848
:1006A800BD003D08A6007808F03903196E2B7808BC
:1006B800BD000430BD36890B5E2B3D080F39653E01
:1006C800840084300318013E85000008BE003E08FF
:1006D800A7006F2BA7012E082F04031D442C3708F1
:1006E80003197C2B7A30AE000030AF00B701442CE0
:1006F800E830AE000130AF00B701B70A442CB701AB
:10070800B70AAE01AF01B201B30139083039031D90
:10071800BE2B77080F39653E840084300318013EEC
:1007280085000008BD003D08A4007708BD0004301E
:10073800BD36890B9C2B3D080F39653E84008430FB
:100748000318013E85000008BE003E08A500760893
:100758000F39653E840084300318013E8500000887
:10076800BD003D08A6007608BD000430BD36890BE3
:10077800BA2B362C76080F39653E8400843003186E
:10078800013E85000008BD003D08A4007608BD00B4
:100798000430BD36890BCD2B3D080F39653E8400EA
:1007A80084300318013E85000008BE003E08A500FD
:1007B800411C202C79080319122C7908843149240A
:1007C80080310F39653E840084300318013E85006E
:1007D80000082000BD003D08A6007908843149249E
:1007E8008031F03903190F2C79088431492480317C
:1007F8002000BD000430BD36890BFF2B3D080F39A2
:10080800653E840084300318013E85000008BE0060
:100818003E08A7001A2C2000A7011A2C0930BD0099
:100828003D08A700E530BD003D08A600123079025A
:10083800031C442C2716442C79080F39653E840084
:1008480084300318013E85000008BD003D08A6005D
:100858007908F0390319432C7908BD000430BD36F6
:10086800890B332C3D080F39653E8400843003180A
:10087800013E85000008BE003E08A700442CA701E1
:1008880026168E198A2863008A28F30022307302FC
:100898000318612C21307306031D542C0930592C80
:1008A80020307306031D5D2C0830F2007208F30037
:1008B800632C13307302031C632C1230F302730889
:1008C8000800EB340934E534AD340F34AE34EE347B
:1008D8008934EF34AF34CF346E34E2346D34E634D7
:1008E800C634F3000F307305F2000F307206031D93
:1008F800802C7308FA3E080073080800F3000F30D4
:100908007305F2000A307206031D8D2C7308063E2B
:10091800080073080800640080010131890B902CDD
:02092800003499
:020000040001F9
:0A000E008C17DC3F9F3FFF0FFF3F00
:00000001FF
